{
  "_format": "hh-sol-artifact-1",
  "contractName": "Carbon",
  "sourceName": "contracts/Carbon.sol",
  "abi": [
    {
      "inputs": [],
      "stateMutability": "nonpayable",
      "type": "constructor"
    },
    {
      "anonymous": false,
      "inputs": [
        {
          "indexed": true,
          "internalType": "address",
          "name": "owner",
          "type": "address"
        },
        {
          "indexed": true,
          "internalType": "address",
          "name": "approved",
          "type": "address"
        },
        {
          "indexed": true,
          "internalType": "uint256",
          "name": "tokenId",
          "type": "uint256"
        }
      ],
      "name": "Approval",
      "type": "event"
    },
    {
      "anonymous": false,
      "inputs": [
        {
          "indexed": true,
          "internalType": "address",
          "name": "owner",
          "type": "address"
        },
        {
          "indexed": true,
          "internalType": "address",
          "name": "operator",
          "type": "address"
        },
        {
          "indexed": false,
          "internalType": "bool",
          "name": "approved",
          "type": "bool"
        }
      ],
      "name": "ApprovalForAll",
      "type": "event"
    },
    {
      "anonymous": false,
      "inputs": [
        {
          "indexed": true,
          "internalType": "address",
          "name": "previousOwner",
          "type": "address"
        },
        {
          "indexed": true,
          "internalType": "address",
          "name": "newOwner",
          "type": "address"
        }
      ],
      "name": "OwnershipTransferred",
      "type": "event"
    },
    {
      "anonymous": false,
      "inputs": [
        {
          "indexed": true,
          "internalType": "address",
          "name": "from",
          "type": "address"
        },
        {
          "indexed": true,
          "internalType": "address",
          "name": "to",
          "type": "address"
        },
        {
          "indexed": true,
          "internalType": "uint256",
          "name": "tokenId",
          "type": "uint256"
        }
      ],
      "name": "Transfer",
      "type": "event"
    },
    {
      "inputs": [
        {
          "internalType": "address",
          "name": "to",
          "type": "address"
        },
        {
          "internalType": "uint256",
          "name": "tokenId",
          "type": "uint256"
        }
      ],
      "name": "approve",
      "outputs": [],
      "stateMutability": "nonpayable",
      "type": "function"
    },
    {
      "inputs": [
        {
          "internalType": "address",
          "name": "owner",
          "type": "address"
        }
      ],
      "name": "balanceOf",
      "outputs": [
        {
          "internalType": "uint256",
          "name": "",
          "type": "uint256"
        }
      ],
      "stateMutability": "view",
      "type": "function"
    },
    {
      "inputs": [
        {
          "internalType": "string",
          "name": "imageURI",
          "type": "string"
        }
      ],
      "name": "formatTokenURI",
      "outputs": [
        {
          "internalType": "string",
          "name": "",
          "type": "string"
        }
      ],
      "stateMutability": "pure",
      "type": "function"
    },
    {
      "inputs": [
        {
          "internalType": "uint256",
          "name": "tokenId",
          "type": "uint256"
        }
      ],
      "name": "getApproved",
      "outputs": [
        {
          "internalType": "address",
          "name": "",
          "type": "address"
        }
      ],
      "stateMutability": "view",
      "type": "function"
    },
    {
      "inputs": [
        {
          "internalType": "address",
          "name": "owner",
          "type": "address"
        },
        {
          "internalType": "address",
          "name": "operator",
          "type": "address"
        }
      ],
      "name": "isApprovedForAll",
      "outputs": [
        {
          "internalType": "bool",
          "name": "",
          "type": "bool"
        }
      ],
      "stateMutability": "view",
      "type": "function"
    },
    {
      "inputs": [],
      "name": "name",
      "outputs": [
        {
          "internalType": "string",
          "name": "",
          "type": "string"
        }
      ],
      "stateMutability": "view",
      "type": "function"
    },
    {
      "inputs": [],
      "name": "owner",
      "outputs": [
        {
          "internalType": "address",
          "name": "",
          "type": "address"
        }
      ],
      "stateMutability": "view",
      "type": "function"
    },
    {
      "inputs": [
        {
          "internalType": "uint256",
          "name": "tokenId",
          "type": "uint256"
        }
      ],
      "name": "ownerOf",
      "outputs": [
        {
          "internalType": "address",
          "name": "",
          "type": "address"
        }
      ],
      "stateMutability": "view",
      "type": "function"
    },
    {
      "inputs": [],
      "name": "renounceOwnership",
      "outputs": [],
      "stateMutability": "nonpayable",
      "type": "function"
    },
    {
      "inputs": [
        {
          "internalType": "address",
          "name": "to",
          "type": "address"
        },
        {
          "internalType": "uint256",
          "name": "carbonAmount",
          "type": "uint256"
        }
      ],
      "name": "safeMint",
      "outputs": [],
      "stateMutability": "nonpayable",
      "type": "function"
    },
    {
      "inputs": [
        {
          "internalType": "address",
          "name": "from",
          "type": "address"
        },
        {
          "internalType": "address",
          "name": "to",
          "type": "address"
        },
        {
          "internalType": "uint256",
          "name": "tokenId",
          "type": "uint256"
        }
      ],
      "name": "safeTransferFrom",
      "outputs": [],
      "stateMutability": "nonpayable",
      "type": "function"
    },
    {
      "inputs": [
        {
          "internalType": "address",
          "name": "from",
          "type": "address"
        },
        {
          "internalType": "address",
          "name": "to",
          "type": "address"
        },
        {
          "internalType": "uint256",
          "name": "tokenId",
          "type": "uint256"
        },
        {
          "internalType": "bytes",
          "name": "_data",
          "type": "bytes"
        }
      ],
      "name": "safeTransferFrom",
      "outputs": [],
      "stateMutability": "nonpayable",
      "type": "function"
    },
    {
      "inputs": [
        {
          "internalType": "address",
          "name": "operator",
          "type": "address"
        },
        {
          "internalType": "bool",
          "name": "approved",
          "type": "bool"
        }
      ],
      "name": "setApprovalForAll",
      "outputs": [],
      "stateMutability": "nonpayable",
      "type": "function"
    },
    {
      "inputs": [
        {
          "internalType": "bytes4",
          "name": "interfaceId",
          "type": "bytes4"
        }
      ],
      "name": "supportsInterface",
      "outputs": [
        {
          "internalType": "bool",
          "name": "",
          "type": "bool"
        }
      ],
      "stateMutability": "view",
      "type": "function"
    },
    {
      "inputs": [
        {
          "internalType": "string",
          "name": "svg",
          "type": "string"
        }
      ],
      "name": "svgToImageURI",
      "outputs": [
        {
          "internalType": "string",
          "name": "",
          "type": "string"
        }
      ],
      "stateMutability": "pure",
      "type": "function"
    },
    {
      "inputs": [],
      "name": "symbol",
      "outputs": [
        {
          "internalType": "string",
          "name": "",
          "type": "string"
        }
      ],
      "stateMutability": "view",
      "type": "function"
    },
    {
      "inputs": [],
      "name": "tokenAmount",
      "outputs": [
        {
          "internalType": "uint256",
          "name": "",
          "type": "uint256"
        }
      ],
      "stateMutability": "view",
      "type": "function"
    },
    {
      "inputs": [
        {
          "internalType": "uint256",
          "name": "tokenId",
          "type": "uint256"
        }
      ],
      "name": "tokenURI",
      "outputs": [
        {
          "internalType": "string",
          "name": "",
          "type": "string"
        }
      ],
      "stateMutability": "view",
      "type": "function"
    },
    {
      "inputs": [
        {
          "internalType": "address",
          "name": "from",
          "type": "address"
        },
        {
          "internalType": "address",
          "name": "to",
          "type": "address"
        },
        {
          "internalType": "uint256",
          "name": "tokenId",
          "type": "uint256"
        }
      ],
      "name": "transferFrom",
      "outputs": [],
      "stateMutability": "nonpayable",
      "type": "function"
    },
    {
      "inputs": [
        {
          "internalType": "address",
          "name": "newOwner",
          "type": "address"
        }
      ],
      "name": "transferOwnership",
      "outputs": [],
      "stateMutability": "nonpayable",
      "type": "function"
    }
  ],
  "bytecode": "0x60806040523480156200001157600080fd5b506040518060400160405280600681526020017f436172626f6e00000000000000000000000000000000000000000000000000008152506040518060400160405280600381526020017f4352420000000000000000000000000000000000000000000000000000000000815250816000908051906020019062000096929190620001a6565b508060019080519060200190620000af929190620001a6565b505050620000d2620000c6620000d860201b60201c565b620000e060201b60201c565b620002ba565b600033905090565b6000600660009054906101000a900473ffffffffffffffffffffffffffffffffffffffff16905081600660006101000a81548173ffffffffffffffffffffffffffffffffffffffff021916908373ffffffffffffffffffffffffffffffffffffffff1602179055508173ffffffffffffffffffffffffffffffffffffffff168173ffffffffffffffffffffffffffffffffffffffff167f8be0079c531659141344cd1fd0a4f28419497f9722a3daafe3b4186f6b6457e060405160405180910390a35050565b828054620001b49062000285565b90600052602060002090601f016020900481019282620001d8576000855562000224565b82601f10620001f357805160ff191683800117855562000224565b8280016001018555821562000224579182015b828111156200022357825182559160200191906001019062000206565b5b50905062000233919062000237565b5090565b5b808211156200025257600081600090555060010162000238565b5090565b7f4e487b7100000000000000000000000000000000000000000000000000000000600052602260045260246000fd5b600060028204905060018216806200029e57607f821691505b602082108103620002b457620002b362000256565b5b50919050565b6135ec80620002ca6000396000f3fe608060405234801561001057600080fd5b506004361061012c5760003560e01c806371aee193116100ad578063b88d4fde11610071578063b88d4fde14610341578063c87b56dd1461035d578063e985e9c51461038d578063eec7faa1146103bd578063f2fde38b146103db5761012c565b806371aee1931461029d5780638da5cb5b146102cd57806395d89b41146102eb578063a144819414610309578063a22cb465146103255761012c565b806330d871c6116100f457806330d871c6146101e757806342842e0e146102175780636352211e1461023357806370a0823114610263578063715018a6146102935761012c565b806301ffc9a71461013157806306fdde0314610161578063081812fc1461017f578063095ea7b3146101af57806323b872dd146101cb575b600080fd5b61014b60048036038101906101469190611e19565b6103f7565b6040516101589190611e61565b60405180910390f35b6101696104d9565b6040516101769190611f15565b60405180910390f35b61019960048036038101906101949190611f6d565b61056b565b6040516101a69190611fdb565b60405180910390f35b6101c960048036038101906101c49190612022565b6105f0565b005b6101e560048036038101906101e09190612062565b610707565b005b61020160048036038101906101fc91906121ea565b610767565b60405161020e9190611f15565b60405180910390f35b610231600480360381019061022c9190612062565b6107fa565b005b61024d60048036038101906102489190611f6d565b61081a565b60405161025a9190611fdb565b60405180910390f35b61027d60048036038101906102789190612233565b6108cb565b60405161028a919061226f565b60405180910390f35b61029b610982565b005b6102b760048036038101906102b291906121ea565b610a0a565b6040516102c49190611f15565b60405180910390f35b6102d5610a97565b6040516102e29190611fdb565b60405180910390f35b6102f3610ac1565b6040516103009190611f15565b60405180910390f35b610323600480360381019061031e9190612022565b610b53565b005b61033f600480360381019061033a91906122b6565b610c0e565b005b61035b60048036038101906103569190612397565b610c24565b005b61037760048036038101906103729190611f6d565b610c86565b6040516103849190611f15565b60405180910390f35b6103a760048036038101906103a2919061241a565b610cfc565b6040516103b49190611e61565b60405180910390f35b6103c5610d90565b6040516103d2919061226f565b60405180910390f35b6103f560048036038101906103f09190612233565b610da1565b005b60007f80ac58cd000000000000000000000000000000000000000000000000000000007bffffffffffffffffffffffffffffffffffffffffffffffffffffffff1916827bffffffffffffffffffffffffffffffffffffffffffffffffffffffff191614806104c257507f5b5e139f000000000000000000000000000000000000000000000000000000007bffffffffffffffffffffffffffffffffffffffffffffffffffffffff1916827bffffffffffffffffffffffffffffffffffffffffffffffffffffffff1916145b806104d257506104d182610e98565b5b9050919050565b6060600080546104e890612489565b80601f016020809104026020016040519081016040528092919081815260200182805461051490612489565b80156105615780601f1061053657610100808354040283529160200191610561565b820191906000526020600020905b81548152906001019060200180831161054457829003601f168201915b5050505050905090565b600061057682610f02565b6105b5576040517f08c379a00000000000000000000000000000000000000000000000000000000081526004016105ac9061252c565b60405180910390fd5b6004600083815260200190815260200160002060009054906101000a900473ffffffffffffffffffffffffffffffffffffffff169050919050565b60006105fb8261081a565b90508073ffffffffffffffffffffffffffffffffffffffff168373ffffffffffffffffffffffffffffffffffffffff160361066b576040517f08c379a0000000000000000000000000000000000000000000000000000000008152600401610662906125be565b60405180910390fd5b8073ffffffffffffffffffffffffffffffffffffffff1661068a610f6e565b73ffffffffffffffffffffffffffffffffffffffff1614806106b957506106b8816106b3610f6e565b610cfc565b5b6106f8576040517f08c379a00000000000000000000000000000000000000000000000000000000081526004016106ef90612650565b60405180910390fd5b6107028383610f76565b505050565b610718610712610f6e565b8261102f565b610757576040517f08c379a000000000000000000000000000000000000000000000000000000000815260040161074e906126e2565b60405180910390fd5b61076283838361110d565b505050565b606060006040518060400160405280601a81526020017f646174613a696d6167652f7376672b786d6c3b6261736536342c000000000000815250905060006107cd846040516020016107b9919061273e565b604051602081830303815290604052611373565b905081816040516020016107e2929190612755565b60405160208183030381529060405292505050919050565b61081583838360405180602001604052806000815250610c24565b505050565b6000806002600084815260200190815260200160002060009054906101000a900473ffffffffffffffffffffffffffffffffffffffff169050600073ffffffffffffffffffffffffffffffffffffffff168173ffffffffffffffffffffffffffffffffffffffff16036108c2576040517f08c379a00000000000000000000000000000000000000000000000000000000081526004016108b9906127eb565b60405180910390fd5b80915050919050565b60008073ffffffffffffffffffffffffffffffffffffffff168273ffffffffffffffffffffffffffffffffffffffff160361093b576040517f08c379a00000000000000000000000000000000000000000000000000000000081526004016109329061287d565b60405180910390fd5b600360008373ffffffffffffffffffffffffffffffffffffffff1673ffffffffffffffffffffffffffffffffffffffff168152602001908152602001600020549050919050565b61098a610f6e565b73ffffffffffffffffffffffffffffffffffffffff166109a8610a97565b73ffffffffffffffffffffffffffffffffffffffff16146109fe576040517f08c379a00000000000000000000000000000000000000000000000000000000081526004016109f5906128e9565b60405180910390fd5b610a0860006114eb565b565b606060006040518060400160405280601d81526020017f646174613a6170706c69636174696f6e2f6a736f6e3b6261736536342c000000815250905080610a6f84604051602001610a5b9190612aab565b604051602081830303815290604052611373565b604051602001610a80929190612755565b604051602081830303815290604052915050919050565b6000600660009054906101000a900473ffffffffffffffffffffffffffffffffffffffff16905090565b606060018054610ad090612489565b80601f0160208091040260200160405190810160405280929190818152602001828054610afc90612489565b8015610b495780601f10610b1e57610100808354040283529160200191610b49565b820191906000526020600020905b815481529060010190602001808311610b2c57829003601f168201915b5050505050905090565b610b5b610f6e565b73ffffffffffffffffffffffffffffffffffffffff16610b79610a97565b73ffffffffffffffffffffffffffffffffffffffff1614610bcf576040517f08c379a0000000000000000000000000000000000000000000000000000000008152600401610bc6906128e9565b60405180910390fd5b6000610bdb60076115b1565b9050610be760076115bf565b816008600083815260200190815260200160002081905550610c0983826115d5565b505050565b610c20610c19610f6e565b83836115f3565b5050565b610c35610c2f610f6e565b8361102f565b610c74576040517f08c379a0000000000000000000000000000000000000000000000000000000008152600401610c6b906126e2565b60405180910390fd5b610c808484848461175f565b50505050565b6060610c9182610f02565b610cd0576040517f08c379a0000000000000000000000000000000000000000000000000000000008152600401610cc790612b6b565b60405180910390fd5b6000610ce3610cde846117bb565b610767565b90506000610cf082610a0a565b90508092505050919050565b6000600560008473ffffffffffffffffffffffffffffffffffffffff1673ffffffffffffffffffffffffffffffffffffffff16815260200190815260200160002060008373ffffffffffffffffffffffffffffffffffffffff1673ffffffffffffffffffffffffffffffffffffffff16815260200190815260200160002060009054906101000a900460ff16905092915050565b6000610d9c60076115b1565b905090565b610da9610f6e565b73ffffffffffffffffffffffffffffffffffffffff16610dc7610a97565b73ffffffffffffffffffffffffffffffffffffffff1614610e1d576040517f08c379a0000000000000000000000000000000000000000000000000000000008152600401610e14906128e9565b60405180910390fd5b600073ffffffffffffffffffffffffffffffffffffffff168173ffffffffffffffffffffffffffffffffffffffff1603610e8c576040517f08c379a0000000000000000000000000000000000000000000000000000000008152600401610e8390612bfd565b60405180910390fd5b610e95816114eb565b50565b60007f01ffc9a7000000000000000000000000000000000000000000000000000000007bffffffffffffffffffffffffffffffffffffffffffffffffffffffff1916827bffffffffffffffffffffffffffffffffffffffffffffffffffffffff1916149050919050565b60008073ffffffffffffffffffffffffffffffffffffffff166002600084815260200190815260200160002060009054906101000a900473ffffffffffffffffffffffffffffffffffffffff1673ffffffffffffffffffffffffffffffffffffffff1614159050919050565b600033905090565b816004600083815260200190815260200160002060006101000a81548173ffffffffffffffffffffffffffffffffffffffff021916908373ffffffffffffffffffffffffffffffffffffffff160217905550808273ffffffffffffffffffffffffffffffffffffffff16610fe98361081a565b73ffffffffffffffffffffffffffffffffffffffff167f8c5be1e5ebec7d5bd14f71427d1e84f3dd0314c0f7b2291e5b200ac8c7c3b92560405160405180910390a45050565b600061103a82610f02565b611079576040517f08c379a000000000000000000000000000000000000000000000000000000000815260040161107090612c8f565b60405180910390fd5b60006110848361081a565b90508073ffffffffffffffffffffffffffffffffffffffff168473ffffffffffffffffffffffffffffffffffffffff1614806110f357508373ffffffffffffffffffffffffffffffffffffffff166110db8461056b565b73ffffffffffffffffffffffffffffffffffffffff16145b8061110457506111038185610cfc565b5b91505092915050565b8273ffffffffffffffffffffffffffffffffffffffff1661112d8261081a565b73ffffffffffffffffffffffffffffffffffffffff1614611183576040517f08c379a000000000000000000000000000000000000000000000000000000000815260040161117a90612d21565b60405180910390fd5b600073ffffffffffffffffffffffffffffffffffffffff168273ffffffffffffffffffffffffffffffffffffffff16036111f2576040517f08c379a00000000000000000000000000000000000000000000000000000000081526004016111e990612db3565b60405180910390fd5b6111fd838383611865565b611208600082610f76565b6001600360008573ffffffffffffffffffffffffffffffffffffffff1673ffffffffffffffffffffffffffffffffffffffff16815260200190815260200160002060008282546112589190612e02565b925050819055506001600360008473ffffffffffffffffffffffffffffffffffffffff1673ffffffffffffffffffffffffffffffffffffffff16815260200190815260200160002060008282546112af9190612e36565b92505081905550816002600083815260200190815260200160002060006101000a81548173ffffffffffffffffffffffffffffffffffffffff021916908373ffffffffffffffffffffffffffffffffffffffff160217905550808273ffffffffffffffffffffffffffffffffffffffff168473ffffffffffffffffffffffffffffffffffffffff167fddf252ad1be2c89b69c2b068fc378daa952ba7f163c4a11628f55a4df523b3ef60405160405180910390a461136e83838361186a565b505050565b60606000825103611395576040518060200160405280600081525090506114e6565b600060405180606001604052806040815260200161357760409139905060006003600285516113c49190612e36565b6113ce9190612ebb565b60046113da9190612eec565b905060006020826113eb9190612e36565b67ffffffffffffffff811115611404576114036120bf565b5b6040519080825280601f01601f1916602001820160405280156114365781602001600182028036833780820191505090505b509050818152600183018586518101602084015b818310156114a5576003830192508251603f8160121c168501518253600182019150603f81600c1c168501518253600182019150603f8160061c168501518253600182019150603f811685015182536001820191505061144a565b6003895106600181146114bf57600281146114cf576114da565b613d3d60f01b60028303526114da565b603d60f81b60018303525b50505050508093505050505b919050565b6000600660009054906101000a900473ffffffffffffffffffffffffffffffffffffffff16905081600660006101000a81548173ffffffffffffffffffffffffffffffffffffffff021916908373ffffffffffffffffffffffffffffffffffffffff1602179055508173ffffffffffffffffffffffffffffffffffffffff168173ffffffffffffffffffffffffffffffffffffffff167f8be0079c531659141344cd1fd0a4f28419497f9722a3daafe3b4186f6b6457e060405160405180910390a35050565b600081600001549050919050565b6001816000016000828254019250508190555050565b6115ef82826040518060200160405280600081525061186f565b5050565b8173ffffffffffffffffffffffffffffffffffffffff168373ffffffffffffffffffffffffffffffffffffffff1603611661576040517f08c379a000000000000000000000000000000000000000000000000000000000815260040161165890612f92565b60405180910390fd5b80600560008573ffffffffffffffffffffffffffffffffffffffff1673ffffffffffffffffffffffffffffffffffffffff16815260200190815260200160002060008473ffffffffffffffffffffffffffffffffffffffff1673ffffffffffffffffffffffffffffffffffffffff16815260200190815260200160002060006101000a81548160ff0219169083151502179055508173ffffffffffffffffffffffffffffffffffffffff168373ffffffffffffffffffffffffffffffffffffffff167f17307eab39ab6107e8899845ad3d59bd9653f200f220920489ca2b5937696c31836040516117529190611e61565b60405180910390a3505050565b61176a84848461110d565b611776848484846118ca565b6117b5576040517f08c379a00000000000000000000000000000000000000000000000000000000081526004016117ac90613024565b60405180910390fd5b50505050565b60606000604051806102c0016040528061029e81526020016132d961029e9139905060006040518060400160405280601d81526020017f205420436f3220213c2f747370616e3e3c2f746578743e3c2f7376673e000000815250905060006118356008600087815260200190815260200160002054611a51565b905082818360405160200161184c93929190613044565b6040516020818303038152906040529350505050919050565b505050565b505050565b6118798383611bb1565b61188660008484846118ca565b6118c5576040517f08c379a00000000000000000000000000000000000000000000000000000000081526004016118bc90613024565b60405180910390fd5b505050565b60006118eb8473ffffffffffffffffffffffffffffffffffffffff16611d8a565b15611a44578373ffffffffffffffffffffffffffffffffffffffff1663150b7a02611914610f6e565b8786866040518563ffffffff1660e01b815260040161193694939291906130ca565b6020604051808303816000875af192505050801561197257506040513d601f19601f8201168201806040525081019061196f919061312b565b60015b6119f4573d80600081146119a2576040519150601f19603f3d011682016040523d82523d6000602084013e6119a7565b606091505b5060008151036119ec576040517f08c379a00000000000000000000000000000000000000000000000000000000081526004016119e390613024565b60405180910390fd5b805181602001fd5b63150b7a0260e01b7bffffffffffffffffffffffffffffffffffffffffffffffffffffffff1916817bffffffffffffffffffffffffffffffffffffffffffffffffffffffff191614915050611a49565b600190505b949350505050565b606060008203611a98576040518060400160405280600181526020017f30000000000000000000000000000000000000000000000000000000000000008152509050611bac565b600082905060005b60008214611aca578080611ab390613158565b915050600a82611ac39190612ebb565b9150611aa0565b60008167ffffffffffffffff811115611ae657611ae56120bf565b5b6040519080825280601f01601f191660200182016040528015611b185781602001600182028036833780820191505090505b5090505b60008514611ba557600182611b319190612e02565b9150600a85611b4091906131a0565b6030611b4c9190612e36565b60f81b818381518110611b6257611b616131d1565b5b60200101907effffffffffffffffffffffffffffffffffffffffffffffffffffffffffffff1916908160001a905350600a85611b9e9190612ebb565b9450611b1c565b8093505050505b919050565b600073ffffffffffffffffffffffffffffffffffffffff168273ffffffffffffffffffffffffffffffffffffffff1603611c20576040517f08c379a0000000000000000000000000000000000000000000000000000000008152600401611c179061324c565b60405180910390fd5b611c2981610f02565b15611c69576040517f08c379a0000000000000000000000000000000000000000000000000000000008152600401611c60906132b8565b60405180910390fd5b611c7560008383611865565b6001600360008473ffffffffffffffffffffffffffffffffffffffff1673ffffffffffffffffffffffffffffffffffffffff1681526020019081526020016000206000828254611cc59190612e36565b92505081905550816002600083815260200190815260200160002060006101000a81548173ffffffffffffffffffffffffffffffffffffffff021916908373ffffffffffffffffffffffffffffffffffffffff160217905550808273ffffffffffffffffffffffffffffffffffffffff16600073ffffffffffffffffffffffffffffffffffffffff167fddf252ad1be2c89b69c2b068fc378daa952ba7f163c4a11628f55a4df523b3ef60405160405180910390a4611d866000838361186a565b5050565b6000808273ffffffffffffffffffffffffffffffffffffffff163b119050919050565b6000604051905090565b600080fd5b600080fd5b60007fffffffff0000000000000000000000000000000000000000000000000000000082169050919050565b611df681611dc1565b8114611e0157600080fd5b50565b600081359050611e1381611ded565b92915050565b600060208284031215611e2f57611e2e611db7565b5b6000611e3d84828501611e04565b91505092915050565b60008115159050919050565b611e5b81611e46565b82525050565b6000602082019050611e766000830184611e52565b92915050565b600081519050919050565b600082825260208201905092915050565b60005b83811015611eb6578082015181840152602081019050611e9b565b83811115611ec5576000848401525b50505050565b6000601f19601f8301169050919050565b6000611ee782611e7c565b611ef18185611e87565b9350611f01818560208601611e98565b611f0a81611ecb565b840191505092915050565b60006020820190508181036000830152611f2f8184611edc565b905092915050565b6000819050919050565b611f4a81611f37565b8114611f5557600080fd5b50565b600081359050611f6781611f41565b92915050565b600060208284031215611f8357611f82611db7565b5b6000611f9184828501611f58565b91505092915050565b600073ffffffffffffffffffffffffffffffffffffffff82169050919050565b6000611fc582611f9a565b9050919050565b611fd581611fba565b82525050565b6000602082019050611ff06000830184611fcc565b92915050565b611fff81611fba565b811461200a57600080fd5b50565b60008135905061201c81611ff6565b92915050565b6000806040838503121561203957612038611db7565b5b60006120478582860161200d565b925050602061205885828601611f58565b9150509250929050565b60008060006060848603121561207b5761207a611db7565b5b60006120898682870161200d565b935050602061209a8682870161200d565b92505060406120ab86828701611f58565b9150509250925092565b600080fd5b600080fd5b7f4e487b7100000000000000000000000000000000000000000000000000000000600052604160045260246000fd5b6120f782611ecb565b810181811067ffffffffffffffff82111715612116576121156120bf565b5b80604052505050565b6000612129611dad565b905061213582826120ee565b919050565b600067ffffffffffffffff821115612155576121546120bf565b5b61215e82611ecb565b9050602081019050919050565b82818337600083830152505050565b600061218d6121888461213a565b61211f565b9050828152602081018484840111156121a9576121a86120ba565b5b6121b484828561216b565b509392505050565b600082601f8301126121d1576121d06120b5565b5b81356121e184826020860161217a565b91505092915050565b600060208284031215612200576121ff611db7565b5b600082013567ffffffffffffffff81111561221e5761221d611dbc565b5b61222a848285016121bc565b91505092915050565b60006020828403121561224957612248611db7565b5b60006122578482850161200d565b91505092915050565b61226981611f37565b82525050565b60006020820190506122846000830184612260565b92915050565b61229381611e46565b811461229e57600080fd5b50565b6000813590506122b08161228a565b92915050565b600080604083850312156122cd576122cc611db7565b5b60006122db8582860161200d565b92505060206122ec858286016122a1565b9150509250929050565b600067ffffffffffffffff821115612311576123106120bf565b5b61231a82611ecb565b9050602081019050919050565b600061233a612335846122f6565b61211f565b905082815260208101848484011115612356576123556120ba565b5b61236184828561216b565b509392505050565b600082601f83011261237e5761237d6120b5565b5b813561238e848260208601612327565b91505092915050565b600080600080608085870312156123b1576123b0611db7565b5b60006123bf8782880161200d565b94505060206123d08782880161200d565b93505060406123e187828801611f58565b925050606085013567ffffffffffffffff81111561240257612401611dbc565b5b61240e87828801612369565b91505092959194509250565b6000806040838503121561243157612430611db7565b5b600061243f8582860161200d565b92505060206124508582860161200d565b9150509250929050565b7f4e487b7100000000000000000000000000000000000000000000000000000000600052602260045260246000fd5b600060028204905060018216806124a157607f821691505b6020821081036124b4576124b361245a565b5b50919050565b7f4552433732313a20617070726f76656420717565727920666f72206e6f6e657860008201527f697374656e7420746f6b656e0000000000000000000000000000000000000000602082015250565b6000612516602c83611e87565b9150612521826124ba565b604082019050919050565b6000602082019050818103600083015261254581612509565b9050919050565b7f4552433732313a20617070726f76616c20746f2063757272656e74206f776e6560008201527f7200000000000000000000000000000000000000000000000000000000000000602082015250565b60006125a8602183611e87565b91506125b38261254c565b604082019050919050565b600060208201905081810360008301526125d78161259b565b9050919050565b7f4552433732313a20617070726f76652063616c6c6572206973206e6f74206f7760008201527f6e6572206e6f7220617070726f76656420666f7220616c6c0000000000000000602082015250565b600061263a603883611e87565b9150612645826125de565b604082019050919050565b600060208201905081810360008301526126698161262d565b9050919050565b7f4552433732313a207472616e736665722063616c6c6572206973206e6f74206f60008201527f776e6572206e6f7220617070726f766564000000000000000000000000000000602082015250565b60006126cc603183611e87565b91506126d782612670565b604082019050919050565b600060208201905081810360008301526126fb816126bf565b9050919050565b600081905092915050565b600061271882611e7c565b6127228185612702565b9350612732818560208601611e98565b80840191505092915050565b600061274a828461270d565b915081905092915050565b6000612761828561270d565b915061276d828461270d565b91508190509392505050565b7f4552433732313a206f776e657220717565727920666f72206e6f6e657869737460008201527f656e7420746f6b656e0000000000000000000000000000000000000000000000602082015250565b60006127d5602983611e87565b91506127e082612779565b604082019050919050565b60006020820190508181036000830152612804816127c8565b9050919050565b7f4552433732313a2062616c616e636520717565727920666f7220746865207a6560008201527f726f206164647265737300000000000000000000000000000000000000000000602082015250565b6000612867602a83611e87565b91506128728261280b565b604082019050919050565b600060208201905081810360008301526128968161285a565b9050919050565b7f4f776e61626c653a2063616c6c6572206973206e6f7420746865206f776e6572600082015250565b60006128d3602083611e87565b91506128de8261289d565b602082019050919050565b60006020820190508181036000830152612902816128c6565b9050919050565b7f7b226e616d65223a2022436172626f6e204e4654222c20000000000000000000600082015250565b600061293f601783612702565b915061294a82612909565b601782019050919050565b7f226465736372697074696f6e223a20225468616e6b20796f7520666f7220746860008201527f6520706c616e65742021222c2000000000000000000000000000000000000000602082015250565b60006129b1602d83612702565b91506129bc82612955565b602d82019050919050565b7f2261747472696275746573223a22222c20000000000000000000000000000000600082015250565b60006129fd601183612702565b9150612a08826129c7565b601182019050919050565b7f22696d616765223a202200000000000000000000000000000000000000000000600082015250565b6000612a49600a83612702565b9150612a5482612a13565b600a82019050919050565b7f227d000000000000000000000000000000000000000000000000000000000000600082015250565b6000612a95600283612702565b9150612aa082612a5f565b600282019050919050565b6000612ab682612932565b9150612ac1826129a4565b9150612acc826129f0565b9150612ad782612a3c565b9150612ae3828461270d565b9150612aee82612a88565b915081905092915050565b7f4552433732314d657461646174613a2055524920717565727920666f72206e6f60008201527f6e6578697374656e7420746f6b656e0000000000000000000000000000000000602082015250565b6000612b55602f83611e87565b9150612b6082612af9565b604082019050919050565b60006020820190508181036000830152612b8481612b48565b9050919050565b7f4f776e61626c653a206e6577206f776e657220697320746865207a65726f206160008201527f6464726573730000000000000000000000000000000000000000000000000000602082015250565b6000612be7602683611e87565b9150612bf282612b8b565b604082019050919050565b60006020820190508181036000830152612c1681612bda565b9050919050565b7f4552433732313a206f70657261746f7220717565727920666f72206e6f6e657860008201527f697374656e7420746f6b656e0000000000000000000000000000000000000000602082015250565b6000612c79602c83611e87565b9150612c8482612c1d565b604082019050919050565b60006020820190508181036000830152612ca881612c6c565b9050919050565b7f4552433732313a207472616e736665722066726f6d20696e636f72726563742060008201527f6f776e6572000000000000000000000000000000000000000000000000000000602082015250565b6000612d0b602583611e87565b9150612d1682612caf565b604082019050919050565b60006020820190508181036000830152612d3a81612cfe565b9050919050565b7f4552433732313a207472616e7366657220746f20746865207a65726f2061646460008201527f7265737300000000000000000000000000000000000000000000000000000000602082015250565b6000612d9d602483611e87565b9150612da882612d41565b604082019050919050565b60006020820190508181036000830152612dcc81612d90565b9050919050565b7f4e487b7100000000000000000000000000000000000000000000000000000000600052601160045260246000fd5b6000612e0d82611f37565b9150612e1883611f37565b925082821015612e2b57612e2a612dd3565b5b828203905092915050565b6000612e4182611f37565b9150612e4c83611f37565b9250827fffffffffffffffffffffffffffffffffffffffffffffffffffffffffffffffff03821115612e8157612e80612dd3565b5b828201905092915050565b7f4e487b7100000000000000000000000000000000000000000000000000000000600052601260045260246000fd5b6000612ec682611f37565b9150612ed183611f37565b925082612ee157612ee0612e8c565b5b828204905092915050565b6000612ef782611f37565b9150612f0283611f37565b9250817fffffffffffffffffffffffffffffffffffffffffffffffffffffffffffffffff0483118215151615612f3b57612f3a612dd3565b5b828202905092915050565b7f4552433732313a20617070726f766520746f2063616c6c657200000000000000600082015250565b6000612f7c601983611e87565b9150612f8782612f46565b602082019050919050565b60006020820190508181036000830152612fab81612f6f565b9050919050565b7f4552433732313a207472616e7366657220746f206e6f6e20455243373231526560008201527f63656976657220696d706c656d656e7465720000000000000000000000000000602082015250565b600061300e603283611e87565b915061301982612fb2565b604082019050919050565b6000602082019050818103600083015261303d81613001565b9050919050565b6000613050828661270d565b915061305c828561270d565b9150613068828461270d565b9150819050949350505050565b600081519050919050565b600082825260208201905092915050565b600061309c82613075565b6130a68185613080565b93506130b6818560208601611e98565b6130bf81611ecb565b840191505092915050565b60006080820190506130df6000830187611fcc565b6130ec6020830186611fcc565b6130f96040830185612260565b818103606083015261310b8184613091565b905095945050505050565b60008151905061312581611ded565b92915050565b60006020828403121561314157613140611db7565b5b600061314f84828501613116565b91505092915050565b600061316382611f37565b91507fffffffffffffffffffffffffffffffffffffffffffffffffffffffffffffffff820361319557613194612dd3565b5b600182019050919050565b60006131ab82611f37565b91506131b683611f37565b9250826131c6576131c5612e8c565b5b828206905092915050565b7f4e487b7100000000000000000000000000000000000000000000000000000000600052603260045260246000fd5b7f4552433732313a206d696e7420746f20746865207a65726f2061646472657373600082015250565b6000613236602083611e87565b915061324182613200565b602082019050919050565b6000602082019050818103600083015261326581613229565b9050919050565b7f4552433732313a20746f6b656e20616c7265616479206d696e74656400000000600082015250565b60006132a2601c83611e87565b91506132ad8261326c565b602082019050919050565b600060208201905081810360008301526132d181613295565b905091905056fe3c73766720786d6c6e733d22687474703a2f2f7777772e77332e6f72672f323030302f737667222077696474683d2234303022206865696768743d223430302220786d6c3a73706163653d227072657365727665223e3c706174682066696c6c3d222331346661303922207472616e73666f726d3d227472616e736c6174652832303020323030292220643d224d2d3230302d3230304832303056323030482d3230307a222f3e3c7376672076696577426f783d222d3133202d31322034302034302220786d6c6e733d22687474703a2f2f7777772e77332e6f72672f323030302f737667222066696c6c2d72756c653d226576656e6f64642220636c69702d72756c653d226576656e6f646422207374726f6b652d6c696e656a6f696e3d22726f756e6422207374726f6b652d6d697465726c696d69743d22312e34223e3c7061746820643d224d38203132203320396c35203720342e392d372d3520337a4d38203020332e3120382e316c35203320342e382d334c3820307a222066696c6c3d2223303130313031222f3e3c2f7376673e3c7465787420666f6e742d66616d696c793d22416c6567726579612220666f6e742d73697a653d2233302220666f6e742d7765696768743d2236303022207472616e73666f726d3d227472616e736c617465283230302034382e3829223e3c747370616e20783d222d3133362e322220793d22392e34223e594f5520434f4d50454e53415445443c2f747370616e3e3c2f746578743e3c7465787420666f6e742d66616d696c793d22416c6567726579612220666f6e742d73697a653d2233302220666f6e742d7765696768743d2235303022207472616e73666f726d3d227472616e736c617465283230302033353429223e3c747370616e20783d222d38302220793d2231302e34223e4142434445464748494a4b4c4d4e4f505152535455565758595a6162636465666768696a6b6c6d6e6f707172737475767778797a303132333435363738392b2fa2646970667358221220a46cc18878c402d18c70b090cf0103d7b938c7eb092a1a21938843120e028a7464736f6c634300080d0033",
  "linkReferences": {},
  "deployedLinkReferences": {}
}