{
  "_format": "hh-sol-artifact-1",
  "contractName": "Carbon",
  "sourceName": "contracts/Carbon.sol",
  "abi": [
    {
      "inputs": [],
      "stateMutability": "nonpayable",
      "type": "constructor"
    },
    {
      "anonymous": false,
      "inputs": [
        {
          "indexed": true,
          "internalType": "address",
          "name": "owner",
          "type": "address"
        },
        {
          "indexed": true,
          "internalType": "address",
          "name": "approved",
          "type": "address"
        },
        {
          "indexed": true,
          "internalType": "uint256",
          "name": "tokenId",
          "type": "uint256"
        }
      ],
      "name": "Approval",
      "type": "event"
    },
    {
      "anonymous": false,
      "inputs": [
        {
          "indexed": true,
          "internalType": "address",
          "name": "owner",
          "type": "address"
        },
        {
          "indexed": true,
          "internalType": "address",
          "name": "operator",
          "type": "address"
        },
        {
          "indexed": false,
          "internalType": "bool",
          "name": "approved",
          "type": "bool"
        }
      ],
      "name": "ApprovalForAll",
      "type": "event"
    },
    {
      "anonymous": false,
      "inputs": [
        {
          "indexed": true,
          "internalType": "address",
          "name": "previousOwner",
          "type": "address"
        },
        {
          "indexed": true,
          "internalType": "address",
          "name": "newOwner",
          "type": "address"
        }
      ],
      "name": "OwnershipTransferred",
      "type": "event"
    },
    {
      "anonymous": false,
      "inputs": [
        {
          "indexed": true,
          "internalType": "address",
          "name": "from",
          "type": "address"
        },
        {
          "indexed": true,
          "internalType": "address",
          "name": "to",
          "type": "address"
        },
        {
          "indexed": true,
          "internalType": "uint256",
          "name": "tokenId",
          "type": "uint256"
        }
      ],
      "name": "Transfer",
      "type": "event"
    },
    {
      "inputs": [
        {
          "internalType": "address",
          "name": "to",
          "type": "address"
        },
        {
          "internalType": "uint256",
          "name": "tokenId",
          "type": "uint256"
        }
      ],
      "name": "approve",
      "outputs": [],
      "stateMutability": "nonpayable",
      "type": "function"
    },
    {
      "inputs": [
        {
          "internalType": "address",
          "name": "owner",
          "type": "address"
        }
      ],
      "name": "balanceOf",
      "outputs": [
        {
          "internalType": "uint256",
          "name": "",
          "type": "uint256"
        }
      ],
      "stateMutability": "view",
      "type": "function"
    },
    {
      "inputs": [
        {
          "internalType": "uint256",
          "name": "tokenId",
          "type": "uint256"
        }
      ],
      "name": "getApproved",
      "outputs": [
        {
          "internalType": "address",
          "name": "",
          "type": "address"
        }
      ],
      "stateMutability": "view",
      "type": "function"
    },
    {
      "inputs": [
        {
          "internalType": "address",
          "name": "owner",
          "type": "address"
        },
        {
          "internalType": "address",
          "name": "operator",
          "type": "address"
        }
      ],
      "name": "isApprovedForAll",
      "outputs": [
        {
          "internalType": "bool",
          "name": "",
          "type": "bool"
        }
      ],
      "stateMutability": "view",
      "type": "function"
    },
    {
      "inputs": [],
      "name": "name",
      "outputs": [
        {
          "internalType": "string",
          "name": "",
          "type": "string"
        }
      ],
      "stateMutability": "view",
      "type": "function"
    },
    {
      "inputs": [],
      "name": "owner",
      "outputs": [
        {
          "internalType": "address",
          "name": "",
          "type": "address"
        }
      ],
      "stateMutability": "view",
      "type": "function"
    },
    {
      "inputs": [
        {
          "internalType": "uint256",
          "name": "tokenId",
          "type": "uint256"
        }
      ],
      "name": "ownerOf",
      "outputs": [
        {
          "internalType": "address",
          "name": "",
          "type": "address"
        }
      ],
      "stateMutability": "view",
      "type": "function"
    },
    {
      "inputs": [],
      "name": "renounceOwnership",
      "outputs": [],
      "stateMutability": "nonpayable",
      "type": "function"
    },
    {
      "inputs": [
        {
          "internalType": "address",
          "name": "to",
          "type": "address"
        }
      ],
      "name": "safeMint",
      "outputs": [],
      "stateMutability": "nonpayable",
      "type": "function"
    },
    {
      "inputs": [
        {
          "internalType": "address",
          "name": "from",
          "type": "address"
        },
        {
          "internalType": "address",
          "name": "to",
          "type": "address"
        },
        {
          "internalType": "uint256",
          "name": "tokenId",
          "type": "uint256"
        }
      ],
      "name": "safeTransferFrom",
      "outputs": [],
      "stateMutability": "nonpayable",
      "type": "function"
    },
    {
      "inputs": [
        {
          "internalType": "address",
          "name": "from",
          "type": "address"
        },
        {
          "internalType": "address",
          "name": "to",
          "type": "address"
        },
        {
          "internalType": "uint256",
          "name": "tokenId",
          "type": "uint256"
        },
        {
          "internalType": "bytes",
          "name": "_data",
          "type": "bytes"
        }
      ],
      "name": "safeTransferFrom",
      "outputs": [],
      "stateMutability": "nonpayable",
      "type": "function"
    },
    {
      "inputs": [
        {
          "internalType": "address",
          "name": "operator",
          "type": "address"
        },
        {
          "internalType": "bool",
          "name": "approved",
          "type": "bool"
        }
      ],
      "name": "setApprovalForAll",
      "outputs": [],
      "stateMutability": "nonpayable",
      "type": "function"
    },
    {
      "inputs": [
        {
          "internalType": "bytes4",
          "name": "interfaceId",
          "type": "bytes4"
        }
      ],
      "name": "supportsInterface",
      "outputs": [
        {
          "internalType": "bool",
          "name": "",
          "type": "bool"
        }
      ],
      "stateMutability": "view",
      "type": "function"
    },
    {
      "inputs": [],
      "name": "symbol",
      "outputs": [
        {
          "internalType": "string",
          "name": "",
          "type": "string"
        }
      ],
      "stateMutability": "view",
      "type": "function"
    },
    {
      "inputs": [],
      "name": "tokenAmount",
      "outputs": [
        {
          "internalType": "uint256",
          "name": "",
          "type": "uint256"
        }
      ],
      "stateMutability": "view",
      "type": "function"
    },
    {
      "inputs": [
        {
          "internalType": "uint256",
          "name": "tokenId",
          "type": "uint256"
        }
      ],
      "name": "tokenURI",
      "outputs": [
        {
          "internalType": "string",
          "name": "",
          "type": "string"
        }
      ],
      "stateMutability": "view",
      "type": "function"
    },
    {
      "inputs": [
        {
          "internalType": "address",
          "name": "from",
          "type": "address"
        },
        {
          "internalType": "address",
          "name": "to",
          "type": "address"
        },
        {
          "internalType": "uint256",
          "name": "tokenId",
          "type": "uint256"
        }
      ],
      "name": "transferFrom",
      "outputs": [],
      "stateMutability": "nonpayable",
      "type": "function"
    },
    {
      "inputs": [
        {
          "internalType": "address",
          "name": "newOwner",
          "type": "address"
        }
      ],
      "name": "transferOwnership",
      "outputs": [],
      "stateMutability": "nonpayable",
      "type": "function"
    }
  ],
  "bytecode": "0x60806040523480156200001157600080fd5b506040518060400160405280600681526020017f436172626f6e00000000000000000000000000000000000000000000000000008152506040518060400160405280600381526020017f4352420000000000000000000000000000000000000000000000000000000000815250816000908051906020019062000096929190620001a6565b508060019080519060200190620000af929190620001a6565b505050620000d2620000c6620000d860201b60201c565b620000e060201b60201c565b620002bb565b600033905090565b6000600660009054906101000a900473ffffffffffffffffffffffffffffffffffffffff16905081600660006101000a81548173ffffffffffffffffffffffffffffffffffffffff021916908373ffffffffffffffffffffffffffffffffffffffff1602179055508173ffffffffffffffffffffffffffffffffffffffff168173ffffffffffffffffffffffffffffffffffffffff167f8be0079c531659141344cd1fd0a4f28419497f9722a3daafe3b4186f6b6457e060405160405180910390a35050565b828054620001b49062000256565b90600052602060002090601f016020900481019282620001d8576000855562000224565b82601f10620001f357805160ff191683800117855562000224565b8280016001018555821562000224579182015b828111156200022357825182559160200191906001019062000206565b5b50905062000233919062000237565b5090565b5b808211156200025257600081600090555060010162000238565b5090565b600060028204905060018216806200026f57607f821691505b602082108114156200028657620002856200028c565b5b50919050565b7f4e487b7100000000000000000000000000000000000000000000000000000000600052602260045260246000fd5b612bfc80620002cb6000396000f3fe608060405234801561001057600080fd5b50600436106101165760003560e01c8063715018a6116100a2578063b88d4fde11610071578063b88d4fde146102cb578063c87b56dd146102e7578063e985e9c514610317578063eec7faa114610347578063f2fde38b1461036557610116565b8063715018a6146102695780638da5cb5b1461027357806395d89b4114610291578063a22cb465146102af57610116565b806323b872dd116100e957806323b872dd146101b557806340d097c3146101d157806342842e0e146101ed5780636352211e1461020957806370a082311461023957610116565b806301ffc9a71461011b57806306fdde031461014b578063081812fc14610169578063095ea7b314610199575b600080fd5b61013560048036038101906101309190611d00565b610381565b6040516101429190612106565b60405180910390f35b610153610463565b6040516101609190612121565b60405180910390f35b610183600480360381019061017e9190611d52565b6104f5565b604051610190919061209f565b60405180910390f35b6101b360048036038101906101ae9190611cc4565b61057a565b005b6101cf60048036038101906101ca9190611bbe565b610692565b005b6101eb60048036038101906101e69190611b59565b6106f2565b005b61020760048036038101906102029190611bbe565b610794565b005b610223600480360381019061021e9190611d52565b6107b4565b604051610230919061209f565b60405180910390f35b610253600480360381019061024e9190611b59565b610866565b6040516102609190612343565b60405180910390f35b61027161091e565b005b61027b6109a6565b604051610288919061209f565b60405180910390f35b6102996109d0565b6040516102a69190612121565b60405180910390f35b6102c960048036038101906102c49190611c88565b610a62565b005b6102e560048036038101906102e09190611c0d565b610a78565b005b61030160048036038101906102fc9190611d52565b610ada565b60405161030e9190612121565b60405180910390f35b610331600480360381019061032c9190611b82565b610b81565b60405161033e9190612106565b60405180910390f35b61034f610c15565b60405161035c9190612343565b60405180910390f35b61037f600480360381019061037a9190611b59565b610c26565b005b60007f80ac58cd000000000000000000000000000000000000000000000000000000007bffffffffffffffffffffffffffffffffffffffffffffffffffffffff1916827bffffffffffffffffffffffffffffffffffffffffffffffffffffffff1916148061044c57507f5b5e139f000000000000000000000000000000000000000000000000000000007bffffffffffffffffffffffffffffffffffffffffffffffffffffffff1916827bffffffffffffffffffffffffffffffffffffffffffffffffffffffff1916145b8061045c575061045b82610d1e565b5b9050919050565b60606000805461047290612568565b80601f016020809104026020016040519081016040528092919081815260200182805461049e90612568565b80156104eb5780601f106104c0576101008083540402835291602001916104eb565b820191906000526020600020905b8154815290600101906020018083116104ce57829003601f168201915b5050505050905090565b600061050082610d88565b61053f576040517f08c379a0000000000000000000000000000000000000000000000000000000008152600401610536906122a3565b60405180910390fd5b6004600083815260200190815260200160002060009054906101000a900473ffffffffffffffffffffffffffffffffffffffff169050919050565b6000610585826107b4565b90508073ffffffffffffffffffffffffffffffffffffffff168373ffffffffffffffffffffffffffffffffffffffff1614156105f6576040517f08c379a00000000000000000000000000000000000000000000000000000000081526004016105ed90612303565b60405180910390fd5b8073ffffffffffffffffffffffffffffffffffffffff16610615610df4565b73ffffffffffffffffffffffffffffffffffffffff16148061064457506106438161063e610df4565b610b81565b5b610683576040517f08c379a000000000000000000000000000000000000000000000000000000000815260040161067a90612223565b60405180910390fd5b61068d8383610dfc565b505050565b6106a361069d610df4565b82610eb5565b6106e2576040517f08c379a00000000000000000000000000000000000000000000000000000000081526004016106d990612323565b60405180910390fd5b6106ed838383610f93565b505050565b6106fa610df4565b73ffffffffffffffffffffffffffffffffffffffff166107186109a6565b73ffffffffffffffffffffffffffffffffffffffff161461076e576040517f08c379a0000000000000000000000000000000000000000000000000000000008152600401610765906122c3565b60405180910390fd5b600061077a60076111fa565b90506107866007611208565b610790828261121e565b5050565b6107af83838360405180602001604052806000815250610a78565b505050565b6000806002600084815260200190815260200160002060009054906101000a900473ffffffffffffffffffffffffffffffffffffffff169050600073ffffffffffffffffffffffffffffffffffffffff168173ffffffffffffffffffffffffffffffffffffffff16141561085d576040517f08c379a000000000000000000000000000000000000000000000000000000000815260040161085490612263565b60405180910390fd5b80915050919050565b60008073ffffffffffffffffffffffffffffffffffffffff168273ffffffffffffffffffffffffffffffffffffffff1614156108d7576040517f08c379a00000000000000000000000000000000000000000000000000000000081526004016108ce90612243565b60405180910390fd5b600360008373ffffffffffffffffffffffffffffffffffffffff1673ffffffffffffffffffffffffffffffffffffffff168152602001908152602001600020549050919050565b610926610df4565b73ffffffffffffffffffffffffffffffffffffffff166109446109a6565b73ffffffffffffffffffffffffffffffffffffffff161461099a576040517f08c379a0000000000000000000000000000000000000000000000000000000008152600401610991906122c3565b60405180910390fd5b6109a4600061123c565b565b6000600660009054906101000a900473ffffffffffffffffffffffffffffffffffffffff16905090565b6060600180546109df90612568565b80601f0160208091040260200160405190810160405280929190818152602001828054610a0b90612568565b8015610a585780601f10610a2d57610100808354040283529160200191610a58565b820191906000526020600020905b815481529060010190602001808311610a3b57829003601f168201915b5050505050905090565b610a74610a6d610df4565b8383611302565b5050565b610a89610a83610df4565b83610eb5565b610ac8576040517f08c379a0000000000000000000000000000000000000000000000000000000008152600401610abf90612323565b60405180910390fd5b610ad48484848461146f565b50505050565b6060610ae582610d88565b610b24576040517f08c379a0000000000000000000000000000000000000000000000000000000008152600401610b1b906122e3565b60405180910390fd5b6000610b2e6114cb565b90506000815111610b4e5760405180602001604052806000815250610b79565b80610b58846114e2565b604051602001610b6992919061207b565b6040516020818303038152906040525b915050919050565b6000600560008473ffffffffffffffffffffffffffffffffffffffff1673ffffffffffffffffffffffffffffffffffffffff16815260200190815260200160002060008373ffffffffffffffffffffffffffffffffffffffff1673ffffffffffffffffffffffffffffffffffffffff16815260200190815260200160002060009054906101000a900460ff16905092915050565b6000610c2160076111fa565b905090565b610c2e610df4565b73ffffffffffffffffffffffffffffffffffffffff16610c4c6109a6565b73ffffffffffffffffffffffffffffffffffffffff1614610ca2576040517f08c379a0000000000000000000000000000000000000000000000000000000008152600401610c99906122c3565b60405180910390fd5b600073ffffffffffffffffffffffffffffffffffffffff168173ffffffffffffffffffffffffffffffffffffffff161415610d12576040517f08c379a0000000000000000000000000000000000000000000000000000000008152600401610d0990612163565b60405180910390fd5b610d1b8161123c565b50565b60007f01ffc9a7000000000000000000000000000000000000000000000000000000007bffffffffffffffffffffffffffffffffffffffffffffffffffffffff1916827bffffffffffffffffffffffffffffffffffffffffffffffffffffffff1916149050919050565b60008073ffffffffffffffffffffffffffffffffffffffff166002600084815260200190815260200160002060009054906101000a900473ffffffffffffffffffffffffffffffffffffffff1673ffffffffffffffffffffffffffffffffffffffff1614159050919050565b600033905090565b816004600083815260200190815260200160002060006101000a81548173ffffffffffffffffffffffffffffffffffffffff021916908373ffffffffffffffffffffffffffffffffffffffff160217905550808273ffffffffffffffffffffffffffffffffffffffff16610e6f836107b4565b73ffffffffffffffffffffffffffffffffffffffff167f8c5be1e5ebec7d5bd14f71427d1e84f3dd0314c0f7b2291e5b200ac8c7c3b92560405160405180910390a45050565b6000610ec082610d88565b610eff576040517f08c379a0000000000000000000000000000000000000000000000000000000008152600401610ef690612203565b60405180910390fd5b6000610f0a836107b4565b90508073ffffffffffffffffffffffffffffffffffffffff168473ffffffffffffffffffffffffffffffffffffffff161480610f7957508373ffffffffffffffffffffffffffffffffffffffff16610f61846104f5565b73ffffffffffffffffffffffffffffffffffffffff16145b80610f8a5750610f898185610b81565b5b91505092915050565b8273ffffffffffffffffffffffffffffffffffffffff16610fb3826107b4565b73ffffffffffffffffffffffffffffffffffffffff1614611009576040517f08c379a000000000000000000000000000000000000000000000000000000000815260040161100090612183565b60405180910390fd5b600073ffffffffffffffffffffffffffffffffffffffff168273ffffffffffffffffffffffffffffffffffffffff161415611079576040517f08c379a0000000000000000000000000000000000000000000000000000000008152600401611070906121c3565b60405180910390fd5b61108483838361168f565b61108f600082610dfc565b6001600360008573ffffffffffffffffffffffffffffffffffffffff1673ffffffffffffffffffffffffffffffffffffffff16815260200190815260200160002060008282546110df919061247e565b925050819055506001600360008473ffffffffffffffffffffffffffffffffffffffff1673ffffffffffffffffffffffffffffffffffffffff168152602001908152602001600020600082825461113691906123f7565b92505081905550816002600083815260200190815260200160002060006101000a81548173ffffffffffffffffffffffffffffffffffffffff021916908373ffffffffffffffffffffffffffffffffffffffff160217905550808273ffffffffffffffffffffffffffffffffffffffff168473ffffffffffffffffffffffffffffffffffffffff167fddf252ad1be2c89b69c2b068fc378daa952ba7f163c4a11628f55a4df523b3ef60405160405180910390a46111f5838383611694565b505050565b600081600001549050919050565b6001816000016000828254019250508190555050565b611238828260405180602001604052806000815250611699565b5050565b6000600660009054906101000a900473ffffffffffffffffffffffffffffffffffffffff16905081600660006101000a81548173ffffffffffffffffffffffffffffffffffffffff021916908373ffffffffffffffffffffffffffffffffffffffff1602179055508173ffffffffffffffffffffffffffffffffffffffff168173ffffffffffffffffffffffffffffffffffffffff167f8be0079c531659141344cd1fd0a4f28419497f9722a3daafe3b4186f6b6457e060405160405180910390a35050565b8173ffffffffffffffffffffffffffffffffffffffff168373ffffffffffffffffffffffffffffffffffffffff161415611371576040517f08c379a0000000000000000000000000000000000000000000000000000000008152600401611368906121e3565b60405180910390fd5b80600560008573ffffffffffffffffffffffffffffffffffffffff1673ffffffffffffffffffffffffffffffffffffffff16815260200190815260200160002060008473ffffffffffffffffffffffffffffffffffffffff1673ffffffffffffffffffffffffffffffffffffffff16815260200190815260200160002060006101000a81548160ff0219169083151502179055508173ffffffffffffffffffffffffffffffffffffffff168373ffffffffffffffffffffffffffffffffffffffff167f17307eab39ab6107e8899845ad3d59bd9653f200f220920489ca2b5937696c31836040516114629190612106565b60405180910390a3505050565b61147a848484610f93565b611486848484846116f4565b6114c5576040517f08c379a00000000000000000000000000000000000000000000000000000000081526004016114bc90612143565b60405180910390fd5b50505050565b606060405180602001604052806000815250905090565b6060600082141561152a576040518060400160405280600181526020017f3000000000000000000000000000000000000000000000000000000000000000815250905061168a565b600082905060005b6000821461155c578080611545906125cb565b915050600a82611555919061244d565b9150611532565b60008167ffffffffffffffff81111561159e577f4e487b7100000000000000000000000000000000000000000000000000000000600052604160045260246000fd5b6040519080825280601f01601f1916602001820160405280156115d05781602001600182028036833780820191505090505b5090505b60008514611683576001826115e9919061247e565b9150600a856115f89190612614565b603061160491906123f7565b60f81b818381518110611640577f4e487b7100000000000000000000000000000000000000000000000000000000600052603260045260246000fd5b60200101907effffffffffffffffffffffffffffffffffffffffffffffffffffffffffffff1916908160001a905350600a8561167c919061244d565b94506115d4565b8093505050505b919050565b505050565b505050565b6116a3838361188b565b6116b060008484846116f4565b6116ef576040517f08c379a00000000000000000000000000000000000000000000000000000000081526004016116e690612143565b60405180910390fd5b505050565b60006117158473ffffffffffffffffffffffffffffffffffffffff16611a65565b1561187e578373ffffffffffffffffffffffffffffffffffffffff1663150b7a0261173e610df4565b8786866040518563ffffffff1660e01b815260040161176094939291906120ba565b602060405180830381600087803b15801561177a57600080fd5b505af19250505080156117ab57506040513d601f19601f820116820180604052508101906117a89190611d29565b60015b61182e573d80600081146117db576040519150601f19603f3d011682016040523d82523d6000602084013e6117e0565b606091505b50600081511415611826576040517f08c379a000000000000000000000000000000000000000000000000000000000815260040161181d90612143565b60405180910390fd5b805181602001fd5b63150b7a0260e01b7bffffffffffffffffffffffffffffffffffffffffffffffffffffffff1916817bffffffffffffffffffffffffffffffffffffffffffffffffffffffff191614915050611883565b600190505b949350505050565b600073ffffffffffffffffffffffffffffffffffffffff168273ffffffffffffffffffffffffffffffffffffffff1614156118fb576040517f08c379a00000000000000000000000000000000000000000000000000000000081526004016118f290612283565b60405180910390fd5b61190481610d88565b15611944576040517f08c379a000000000000000000000000000000000000000000000000000000000815260040161193b906121a3565b60405180910390fd5b6119506000838361168f565b6001600360008473ffffffffffffffffffffffffffffffffffffffff1673ffffffffffffffffffffffffffffffffffffffff16815260200190815260200160002060008282546119a091906123f7565b92505081905550816002600083815260200190815260200160002060006101000a81548173ffffffffffffffffffffffffffffffffffffffff021916908373ffffffffffffffffffffffffffffffffffffffff160217905550808273ffffffffffffffffffffffffffffffffffffffff16600073ffffffffffffffffffffffffffffffffffffffff167fddf252ad1be2c89b69c2b068fc378daa952ba7f163c4a11628f55a4df523b3ef60405160405180910390a4611a6160008383611694565b5050565b6000808273ffffffffffffffffffffffffffffffffffffffff163b119050919050565b6000611a9b611a9684612383565b61235e565b905082815260208101848484011115611ab357600080fd5b611abe848285612526565b509392505050565b600081359050611ad581612b6a565b92915050565b600081359050611aea81612b81565b92915050565b600081359050611aff81612b98565b92915050565b600081519050611b1481612b98565b92915050565b600082601f830112611b2b57600080fd5b8135611b3b848260208601611a88565b91505092915050565b600081359050611b5381612baf565b92915050565b600060208284031215611b6b57600080fd5b6000611b7984828501611ac6565b91505092915050565b60008060408385031215611b9557600080fd5b6000611ba385828601611ac6565b9250506020611bb485828601611ac6565b9150509250929050565b600080600060608486031215611bd357600080fd5b6000611be186828701611ac6565b9350506020611bf286828701611ac6565b9250506040611c0386828701611b44565b9150509250925092565b60008060008060808587031215611c2357600080fd5b6000611c3187828801611ac6565b9450506020611c4287828801611ac6565b9350506040611c5387828801611b44565b925050606085013567ffffffffffffffff811115611c7057600080fd5b611c7c87828801611b1a565b91505092959194509250565b60008060408385031215611c9b57600080fd5b6000611ca985828601611ac6565b9250506020611cba85828601611adb565b9150509250929050565b60008060408385031215611cd757600080fd5b6000611ce585828601611ac6565b9250506020611cf685828601611b44565b9150509250929050565b600060208284031215611d1257600080fd5b6000611d2084828501611af0565b91505092915050565b600060208284031215611d3b57600080fd5b6000611d4984828501611b05565b91505092915050565b600060208284031215611d6457600080fd5b6000611d7284828501611b44565b91505092915050565b611d84816124b2565b82525050565b611d93816124c4565b82525050565b6000611da4826123b4565b611dae81856123ca565b9350611dbe818560208601612535565b611dc781612701565b840191505092915050565b6000611ddd826123bf565b611de781856123db565b9350611df7818560208601612535565b611e0081612701565b840191505092915050565b6000611e16826123bf565b611e2081856123ec565b9350611e30818560208601612535565b80840191505092915050565b6000611e496032836123db565b9150611e5482612712565b604082019050919050565b6000611e6c6026836123db565b9150611e7782612761565b604082019050919050565b6000611e8f6025836123db565b9150611e9a826127b0565b604082019050919050565b6000611eb2601c836123db565b9150611ebd826127ff565b602082019050919050565b6000611ed56024836123db565b9150611ee082612828565b604082019050919050565b6000611ef86019836123db565b9150611f0382612877565b602082019050919050565b6000611f1b602c836123db565b9150611f26826128a0565b604082019050919050565b6000611f3e6038836123db565b9150611f49826128ef565b604082019050919050565b6000611f61602a836123db565b9150611f6c8261293e565b604082019050919050565b6000611f846029836123db565b9150611f8f8261298d565b604082019050919050565b6000611fa76020836123db565b9150611fb2826129dc565b602082019050919050565b6000611fca602c836123db565b9150611fd582612a05565b604082019050919050565b6000611fed6020836123db565b9150611ff882612a54565b602082019050919050565b6000612010602f836123db565b915061201b82612a7d565b604082019050919050565b60006120336021836123db565b915061203e82612acc565b604082019050919050565b60006120566031836123db565b915061206182612b1b565b604082019050919050565b6120758161251c565b82525050565b60006120878285611e0b565b91506120938284611e0b565b91508190509392505050565b60006020820190506120b46000830184611d7b565b92915050565b60006080820190506120cf6000830187611d7b565b6120dc6020830186611d7b565b6120e9604083018561206c565b81810360608301526120fb8184611d99565b905095945050505050565b600060208201905061211b6000830184611d8a565b92915050565b6000602082019050818103600083015261213b8184611dd2565b905092915050565b6000602082019050818103600083015261215c81611e3c565b9050919050565b6000602082019050818103600083015261217c81611e5f565b9050919050565b6000602082019050818103600083015261219c81611e82565b9050919050565b600060208201905081810360008301526121bc81611ea5565b9050919050565b600060208201905081810360008301526121dc81611ec8565b9050919050565b600060208201905081810360008301526121fc81611eeb565b9050919050565b6000602082019050818103600083015261221c81611f0e565b9050919050565b6000602082019050818103600083015261223c81611f31565b9050919050565b6000602082019050818103600083015261225c81611f54565b9050919050565b6000602082019050818103600083015261227c81611f77565b9050919050565b6000602082019050818103600083015261229c81611f9a565b9050919050565b600060208201905081810360008301526122bc81611fbd565b9050919050565b600060208201905081810360008301526122dc81611fe0565b9050919050565b600060208201905081810360008301526122fc81612003565b9050919050565b6000602082019050818103600083015261231c81612026565b9050919050565b6000602082019050818103600083015261233c81612049565b9050919050565b6000602082019050612358600083018461206c565b92915050565b6000612368612379565b9050612374828261259a565b919050565b6000604051905090565b600067ffffffffffffffff82111561239e5761239d6126d2565b5b6123a782612701565b9050602081019050919050565b600081519050919050565b600081519050919050565b600082825260208201905092915050565b600082825260208201905092915050565b600081905092915050565b60006124028261251c565b915061240d8361251c565b9250827fffffffffffffffffffffffffffffffffffffffffffffffffffffffffffffffff0382111561244257612441612645565b5b828201905092915050565b60006124588261251c565b91506124638361251c565b92508261247357612472612674565b5b828204905092915050565b60006124898261251c565b91506124948361251c565b9250828210156124a7576124a6612645565b5b828203905092915050565b60006124bd826124fc565b9050919050565b60008115159050919050565b60007fffffffff0000000000000000000000000000000000000000000000000000000082169050919050565b600073ffffffffffffffffffffffffffffffffffffffff82169050919050565b6000819050919050565b82818337600083830152505050565b60005b83811015612553578082015181840152602081019050612538565b83811115612562576000848401525b50505050565b6000600282049050600182168061258057607f821691505b60208210811415612594576125936126a3565b5b50919050565b6125a382612701565b810181811067ffffffffffffffff821117156125c2576125c16126d2565b5b80604052505050565b60006125d68261251c565b91507fffffffffffffffffffffffffffffffffffffffffffffffffffffffffffffffff82141561260957612608612645565b5b600182019050919050565b600061261f8261251c565b915061262a8361251c565b92508261263a57612639612674565b5b828206905092915050565b7f4e487b7100000000000000000000000000000000000000000000000000000000600052601160045260246000fd5b7f4e487b7100000000000000000000000000000000000000000000000000000000600052601260045260246000fd5b7f4e487b7100000000000000000000000000000000000000000000000000000000600052602260045260246000fd5b7f4e487b7100000000000000000000000000000000000000000000000000000000600052604160045260246000fd5b6000601f19601f8301169050919050565b7f4552433732313a207472616e7366657220746f206e6f6e20455243373231526560008201527f63656976657220696d706c656d656e7465720000000000000000000000000000602082015250565b7f4f776e61626c653a206e6577206f776e657220697320746865207a65726f206160008201527f6464726573730000000000000000000000000000000000000000000000000000602082015250565b7f4552433732313a207472616e736665722066726f6d20696e636f72726563742060008201527f6f776e6572000000000000000000000000000000000000000000000000000000602082015250565b7f4552433732313a20746f6b656e20616c7265616479206d696e74656400000000600082015250565b7f4552433732313a207472616e7366657220746f20746865207a65726f2061646460008201527f7265737300000000000000000000000000000000000000000000000000000000602082015250565b7f4552433732313a20617070726f766520746f2063616c6c657200000000000000600082015250565b7f4552433732313a206f70657261746f7220717565727920666f72206e6f6e657860008201527f697374656e7420746f6b656e0000000000000000000000000000000000000000602082015250565b7f4552433732313a20617070726f76652063616c6c6572206973206e6f74206f7760008201527f6e6572206e6f7220617070726f76656420666f7220616c6c0000000000000000602082015250565b7f4552433732313a2062616c616e636520717565727920666f7220746865207a6560008201527f726f206164647265737300000000000000000000000000000000000000000000602082015250565b7f4552433732313a206f776e657220717565727920666f72206e6f6e657869737460008201527f656e7420746f6b656e0000000000000000000000000000000000000000000000602082015250565b7f4552433732313a206d696e7420746f20746865207a65726f2061646472657373600082015250565b7f4552433732313a20617070726f76656420717565727920666f72206e6f6e657860008201527f697374656e7420746f6b656e0000000000000000000000000000000000000000602082015250565b7f4f776e61626c653a2063616c6c6572206973206e6f7420746865206f776e6572600082015250565b7f4552433732314d657461646174613a2055524920717565727920666f72206e6f60008201527f6e6578697374656e7420746f6b656e0000000000000000000000000000000000602082015250565b7f4552433732313a20617070726f76616c20746f2063757272656e74206f776e6560008201527f7200000000000000000000000000000000000000000000000000000000000000602082015250565b7f4552433732313a207472616e736665722063616c6c6572206973206e6f74206f60008201527f776e6572206e6f7220617070726f766564000000000000000000000000000000602082015250565b612b73816124b2565b8114612b7e57600080fd5b50565b612b8a816124c4565b8114612b9557600080fd5b50565b612ba1816124d0565b8114612bac57600080fd5b50565b612bb88161251c565b8114612bc357600080fd5b5056fea2646970667358221220d60e3f4e549fd329b8f0965530693e12475ffb644affabb34edc8b3afe99b0e264736f6c63430008040033",
  "linkReferences": {},
  "deployedLinkReferences": {}
}